:020000040800F2
:1000000050040020D5540008DD540008DF540008D7
:10001000E1540008E3540008E55400080000000023
:10002000000000000000000000000000E75400088D
:10003000E954000800000000EB540008ED540008EB
:10004000EF540008EF540008EF540008EF54000884
:10005000EF540008EF540008EF540008EF54000874
:10006000EF540008EF540008EF540008EF54000864
:10007000EF540008EF540008EF540008EF54000854
:10008000EF540008EF540008EF540008EF54000844
:10009000EF540008EF540008EF540008EF54000834
:1000A000EF540008EF540008EF540008EF54000824
:1000B000EF5400080B5A0008EF540008EF540008F2
:1000C000EF540008EF540008EF540008EF54000804
:1000D000EF540008EF540008EF540008EF540008F4
:1000E000EF540008EF540008EF540008000000002F
:1000F0000000000000000000000000000000000000
:100100000000000000000000EF540008EF54000859
:10011000EF540008EF5400089F5A0008EF540008FD
:10012000EF540008EF540008EF540008EF540008A3
:10013000EF540008EF540008EF540008EF54000893
:10014000EF540008EF540008EF540008EF54000883
:10015000DFF80CD005F09CFF0048004771560008FE
:10016000500400205E480021026842F480320260A0
:100170004FF4A0630268491C12F4003F01D1994278
:10018000F8D1016889033FD556490A6842F0100248
:100190000A600A6822F003020A600A6842F002025A
:1001A0000A604168416041684160416841F4806192
:1001B0004160C16A4C4A1140C162C16A4B4A114355
:1001C000C162016841F08061016001680901FCD5EC
:1001D000416821F47C114160416841F4E8114160BB
:1001E000016841F08071016001688901FCD54168B6
:1001F00021F003014160416841F002014160416822
:10020000C1F381010229FAD17047354810B5016860
:1002100041F0010101604168354A114041600168C7
:10022000344A11400160016821F480210160416875
:1002300021F4FE014160016821F0A05101604FF4FA
:100240007F0181600021C162FFF78CFF2A494FF0D6
:100250000060086010BD70B5214843682749284AEE
:1002600013F00C0404D0274B042C03D0082C0CD022
:10027000116000E0136041682148C1F30311001DC3
:10028000405C1168C140116070BD4168446801F470
:100290007011890C0D2904F4803401D0891C00E010
:1002A0000621BCB1C46AC56A14F4803F05F00F048E
:1002B00004F1010411D0C56AC66AC5F303156D1CAB
:1002C000B3FBF5F5C6F303239B1C5D43B5FBF4F3C9
:1002D0004B43CFE70C4B5943CAE7B3FBF4F3F7E7C3
:1002E000001002400020024000F0FEFF4406010022
:1002F0000000FFF0FFFFF6FE08ED00E000127A00BC
:100300000000002040787D0100093D00FF480168A1
:1003100041F0010101604168FD4A114041600168FE
:10032000FC4A11400160016821F4802101604168AC
:1003300021F4FE01416002684FF47F0122F0A052D7
:10034000026081600021C162704770B504004FF403
:1003500080354FF4802608D0AC4206D0B44204D099
:1003600040F21111ECA005F0CBF9E849086820F43F
:10037000803008600868AC4220F48020086006D015
:10038000B44203D1086840F4A020086070BD08683A
:1003900040F48030F9E770B50025044621281CD0D0
:1003A000312C1AD0392C18D0412C16D03B2C14D01B
:1003B0003D2C12D0612C10D07A2C0ED07B2C0CD07E
:1003C0007C2C0AD07D2C08D07E2C06D07F2C04D02B
:1003D00040F23451D0A005F093F96109CB480129CE
:1003E0000BD002290BD0406A04F01F0101228A4081
:1003F000024200D00125284670BD0068F4E7006A7B
:10040000F2E770B500244FF4A0653120FFF7C3FF79
:10041000641CAC4201D00028F7D03120FFF7BBFFAD
:10042000002800D0012070BD10B504461F2804D953
:100430004FF4A971B8A005F063F9B448016821F040
:10044000F80141EAC401016010BD10B5040006D0F6
:10045000012C04D040F26511AFA005F051F9BD4860
:10046000046010BD70B505000C4607D0B5F5803F9F
:1004700004D040F27F11A8A005F042F9B4F5002F96
:1004800016D0B4F5402F13D0B4F5801F10D0B4F5BA
:10049000A01F0DD0B4F5C01F0AD0B4F5E01F07D0DF
:1004A000B4F5501F04D04FF4C0719BA005F028F99B
:1004B00096484168254321F474110D43456070BD91
:1004C00010B5040006D0012C04D04FF4CA7192A0DC
:1004D00005F016F99F48046610BD70B505000C467E
:1004E00007D0B5F5803F04D040F2AF118AA005F0E7
:1004F00007F914B3012C20D0022C1ED0032C1CD0E1
:10050000042C1AD0052C18D0062C16D0072C14D089
:10051000082C12D0092C10D00A2C0ED00B2C0CD089
:100520000C2C0AD00D2C08D00E2C06D00F2C04D089
:100530004FF4D87178A005F0E3F87449C86A864A88
:10054000254310400543CD6270BD10B5040022D094
:10055000102C20D0202C1ED0302C1CD0402C1AD097
:10056000502C18D0602C16D0702C14D0802C12D0A7
:10057000902C10D0A02C0ED0B02C0CD0C02C0AD0B7
:10058000D02C08D0E02C06D0F02C04D040F2CB11B7
:1005900061A005F0B5F85D49C86A20F0F00020437D
:1005A000C86210BD10B50446B0F5C06F1CD0B4F5DC
:1005B000E06F19D0B4F5006F16D0B4F5106F13D0FA
:1005C000B4F5206F10D0B4F5306F0DD0B4F5406F96
:1005D0000AD0B4F5606F07D0B4F5706F04D04FF453
:1005E000F2714DA005F08CF84849C86A20F470609B
:1005F0002043C86210BD10B5040006D0012C04D001
:100600004FF4FE7144A005F07BF85248846610BD9B
:1006100010B50446B0F5C04F1CD0B4F5E04F19D06A
:10062000B4F5004F16D0B4F5104F13D0B4F5204FE9
:1006300010D0B4F5304F0DD0B4F5404F0AD0B4F51A
:10064000604F07D0B4F5704F04D04FF4047132A05E
:1006500005F056F82D49C86A20F470402043C8625E
:1006600010BD10B5040006D0012C04D040F22621A4
:1006700029A005F045F83748046710BD10B50400FF
:1006800008D0012C06D0022C04D04FF40E7122A009
:1006900005F036F81D49486820F003002043486003
:1006A00010BD1A48406800F00C00704710B50400F7
:1006B00014D0802C12D0902C10D0A02C0ED0B02CA6
:1006C0000CD0C02C0AD0D02C08D0E02C06D0F02CB6
:1006D00004D04FF4197110A005F012F80B494868C6
:1006E00020F0F0002043486010BD10B504003BD05E
:1006F000B4F5806F38D0B4F5A06F35D0B4F5C06FC5
:1007000032D0B4F5E06F2FD028E000000010024096
:100710000000FFF0FFFFF6FE4C69627261726965CE
:10072000735C53544D3332463130785F53746450A8
:1007300065726970685F4472697665725C73726332
:100740005C73746D3332663130785F7263632E632D
:100750000000000000004242F0FFFEFF40F27E2158
:10076000AFF24C0004F0CCFFF949486820F4E06097
:100770002043486010BD10B5040011D0B4F5806F5F
:100780000ED0B4F5A06F0BD0B4F5C06F08D0B4F59F
:10079000E06F05D04FF42671AFF2840004F0B0FF93
:1007A000EB48416821F4605141EAC401416010BD49
:1007B00070B505460E46000600D42DB940F2BF21A3
:1007C000AFF2AC0004F09CFFE14C56B1012E05D015
:1007D0004FF43071AFF2C00004F092FF607A28430A
:1007E00001E0607AA843607270BD10B5040007D0C4
:1007F000012C05D040F2ED21AFF2E40004F080FFBF
:10080000D448046010BD10B504000ED0B4F5804F7C
:100810000BD0B4F5004F08D0B4F5404F05D040F2EE
:100820000231AFF20C1004F06BFFC949486820F4A4
:1008300040402043486010BD10B5040007D0012C93
:1008400005D040F21B31AFF2301004F059FFC2481E
:10085000046010BD10B5040007D0012C05D040F293
:100860002E31AFF24C1004F04BFFBC48046010BDB9
:1008700010B5040009D0012C07D0042C05D04FF48A
:100880005071AFF26C1004F03BFFB54800210170CD
:1008900000F82019012C06D0042C03D15FF00501CB
:1008A00080F8201010BD0121FAE710B5040007D030
:1008B000012C05D040F26131AFF2A41004F020FF0A
:1008C000A848046010BD10B50446B0F5807F0BD079
:1008D000B4F5007F08D0B4F5407F05D040F2723106
:1008E000AFF2CC1004F00CFF9948016A2143016279
:1008F00010BD10B5040007D0012C05D04FF4607175
:10090000AFF2EC1004F0FCFE9748046010BD70B527
:100910008F494A68954B12F00C0204D0944C042A7B
:1009200003D0082A03D0036029E0046027E04A6866
:100930004B6802F47012920C0D2A03F4803301D03C
:10094000921C00E00622BBB1CB6ACD6A13F4803F53
:1009500005F00F0303F1010334D0CD6ACE6AC5F36D
:1009600003156D1CB4FBF5F5C6F30324A41C654305
:10097000B5FBF3F35343D6E77E4B5A4302604A6814
:100980007D4B02F0F00212099C5C0268E24042607A
:100990004C6804F4E064240A1C5D22FA04F48460C8
:1009A0004C6804F46054E40A1B5DDA40C260496894
:1009B000714B01F44041890B1B1F595CB2FBF1F1F3
:1009C000016170BDB4FBF3F3D4E770B504466B4826
:1009D0000E46044200D12CB940F22B41AFF2C820A0
:1009E00004F08EFE5A4D56B1012E05D040F22C4136
:1009F000AFF2DC2004F084FE6869204301E06869FE
:100A0000A043686170BD70B504465D480E4604425F
:100A100000D12CB940F24A41AFF2043004F070FE2C
:100A20004B4D56B1012E05D040F24B41AFF218307C
:100A300004F066FEA869204301E0A869A043A8610C
:100A400070BD70B504464F480E46044200D12CB923
:100A500040F26941AFF2403004F052FE3C4D56B1D5
:100A6000012E05D040F26A41AFF2543004F048FE46
:100A7000E869204301E0E869A043E86170BD70B512
:100A800005460E4630F4A04000D12DB940F2844115
:100A9000AFF27C3004F034FE2D4C56B1012E05D05F
:100AA00040F28541AFF2903004F02AFEA06A28435C
:100AB00001E0A06AA843A06270BD70B5044630484A
:100AC0000E46044200D12CB940F2A441AFF2B83036
:100AD00004F016FE1E4D56B1012E05D040F2A54180
:100AE000AFF2CC3004F00CFEE868204301E0E86887
:100AF000A043E86070BD70B5044622480E4604422B
:100B000000D12CB940F2C341AFF2F43004F0F8FD4B
:100B10000F4D56B1012E05D040F2C441AFF208404E
:100B200004F0EEFD2869204301E02869A043286114
:100B300070BD10B5040007D0012C05D04FF49B61A7
:100B4000AFF22C4004F0DCFD0F48046010BD000043
:100B500000100240D8004242C4054242C805424249
:100B600020100240800442423C04424200127A00BB
:100B700040787D0100093D0018000020A82FFEFFED
:100B80000200C0FF003601814004424210B504005B
:100B900007D0012C05D040F2E541AFF2844004F0CB
:100BA000AFFD2848C464D1E710B5040015D0052C6A
:100BB00013D0042C11D0062C0FD0072C0DD0082CEC
:100BC0000BD0092C09D00A2C07D00B2C05D040F2F1
:100BD0000551AFF2BC4004F093FD1B48C471B5E76A
:100BE0001948416A41F080714162704770B5002533
:100BF0000446012813D0022C11D0042C0FD0082C4D
:100C00000DD0102C0BD0802C09D0202C07D0402CDC
:100C100005D040F27E51AFF2005004F071FD0A4859
:100C20008068204200D00125284670BD10B5040020
:100C300005D140F2AB51AFF2205004F061FD024803
:100C4000847283E700004242001002402DE9F05F09
:100C50000446FF48844247D0B4F1804F3DD0FD4D5B
:100C6000FD4EFE4FDFF8F883DFF8F893DFF8F8A3C6
:100C7000DFF8F8B3AC4227D0B44225D0BC4223D031
:100C8000444521D04C451FD054451DD05C451BD058
:100C9000F748844218D0F748844215D0F648844279
:100CA00012D0F64884420FD0F54884420CD0F54863
:100CB000844209D0F448844206D0F448844203D0E8
:100CC0007D21F3A004F01CFDAC4210D101210220D3
:100CD000FFF711FF0021022061E001210846FFF724
:100CE0000AFF002101205AE00121CC026CE0B4424D
:100CF00006D101210420FFF7FEFE002104204EE072
:100D0000BC4206D101210820FFF7F5FE0021082092
:100D100045E0444506D101211020FFF7ECFE0021FB
:100D200010203CE04C4506D101212020FFF7E3FED6
:100D30000021202033E0544502D101214C0343E03F
:100D40005C4502D10121CC043EE0C948844202D175
:100D500001210C0538E0C748844202D101214C052D
:100D600032E0C548844206D101214020FFF7C3FE8E
:100D70000021402013E0C148844206D10121802097
:100D8000FFF7B9FE0021802009E0BD4884420AD166
:100D9000841501212046FFF7AEFE00212046BDE864
:100DA000F05FFFF7A8BEB748844202D101210C04CE
:100DB0000AE0B548844202D101214C0404E0B34862
:100DC00084420AD101218C042046FFF776FE20469A
:100DD000BDE8F05F0021FFF770BEBDE8F09F2DE990
:100DE000F05F9B4EDFF86C82DFF86C92DFF86CA24C
:100DF000DFF86CB29C4F04460D46B0422ED0B4F1E1
:100E0000804F2BD0444529D04C4527D0544525D080
:100E10005C4523D09348844220D0BC421ED09348E6
:100E200084421BD09248844218D09248844215D004
:100E30009148844212D0914884420FD09048844215
:100E40000CD09048844209D08F48844206D08F4805
:100E5000844203D0E7218EA004F052FC688858B188
:100E6000102809D0202807D0402805D0602803D0BA
:100E7000E82187A004F044FCE88848B1B0F5807F01
:100E800006D0B0F5007F03D0E92181A004F038FC42
:100E90002088B4420AD0BC4208D0B4F1804F05D0BB
:100EA000444503D04C4501D0544503D120F0700196
:100EB000688808435C4506D06A498C4203D020F418
:100EC0004071E88808432080A888B442A08528881B
:100ED00020850AD0BC4208D06A48844205D06A48BE
:100EE000844202D06948844201D1287A20860120B8
:100EF000A08272E72DE9F05FDFF85491DFF868A176
:100F0000DFF880B104460D4648452CD0B4F1804F3F
:100F100029D05048844226D04F48844223D04F489D
:100F2000844220D054451ED0504884421BD05048A3
:100F3000844218D04F48844215D04F48844212D082
:100F40004E4884420FD04E4884420CD05C450AD0B3
:100F50004D48844207D04D48844204D04FF48E71EE
:100F60004BA004F0CDFB288870B110280CD02028AD
:100F70000AD0302808D0602806D0702804D040F26B
:100F80001D1143A004F0BCFB688830B1012804D0D7
:100F90004FF48F713EA004F0B3FB288930B10228D2
:100FA00004D040F21F113AA004F0AAFB208C20F0DC
:100FB00001002084208CA788218B6E8821F0730388
:100FC00020F0020128892A880843064342EA0308E0
:100FD0004C4509D0544507D05C4505D02A48844289
:100FE00002D02A48844273D1A88830B1042804D0A2
:100FF0004FF49E7126A004F083FB688930B1082865
:1010000004D040F23D1122A004F07AFBE889B0F54B
:10101000007F05D020B14FF49F711DA004F070FB3C
:10102000A889B0F5807F05D020B140F23F1118A00B
:1010300004F066FB26F008016889AE88084320F0BA
:101040000400064327F44071A889EF8908433EE075
:10105000002C01400004004000080040000C00404B
:10106000001000400014004000340140004C0140DA
:10107000005001400054014000180040001C004096
:101080000020004000400140004401400048014071
:101090004C69627261726965735C53544D333246B8
:1010A0003130785F5374645065726970685F447260
:1010B000697665725C7372635C73746D333266312A
:1010C00030785F74696D2E630000000000E0074314
:1010D000A780A4F81880E888A08626847DE62DE9FC
:1010E000F047DFF8F893DFF8F8A304460D464845CB
:1010F0001CD0B4F1804F19D0FA48844216D0FA4877
:10110000844213D0F948844210D054450ED0F84898
:1011100084420BD0F748844208D0F748844205D077
:1011200040F26F11AFF2980004F0EAFA288878B123
:1011300010280DD020280BD0302809D0602807D0E7
:10114000702805D04FF4B871AFF2BC0004F0D8FAA3
:10115000688838B1012805D040F27111AFF2D00093
:1011600004F0CEFA288938B1022805D04FF4B971BD
:10117000AFF2E40004F0C4FA208C20F010002084C8
:10118000208CA788218B2A8821F4E641120641EAA7
:10119000124820F020012889000541EA10406988A2
:1011A000090540EA11464C4501D054453FD1A88875
:1011B00038B1042805D040F28F11AFF22C1004F0A2
:1011C0009FFA688938B1082805D04FF4C871AFF28A
:1011D000401004F095FAE889B0F5007F06D028B1F8
:1011E00040F29111AFF2581004F08AFAA889B0F5D4
:1011F000807F06D028B14FF4C971AFF26C1004F0B3
:101200007FFA688926F08001000541EA1040A9882C
:1012100020F04000090540EA1146A88927F4406102
:10122000800441EA1040E989890440EA1147A78017
:10123000A4F81880E88820872684BDE8F0872DE987
:10124000F047DFF89892DFF898A204460D4648452B
:1012500013D0B4F1804F10D0A24884420DD0A248E0
:1012600084420AD0A148844207D0544505D040F2B8
:10127000C111AFF2E41004F043FA288878B11028C5
:101280000DD020280BD0302809D0602807D0702836
:1012900005D04FF4E171AFF2082004F031FA68880C
:1012A00038B1012805D040F2C311AFF21C2004F080
:1012B00027FA288938B1022805D04FF4E271AFF23D
:1012C000302004F01DFA208C20F480702084228CC1
:1012D000A788A08B2B8920F07301288822F4007244
:1012E00040EA010869881806090642EA104040EA07
:1012F00011464C4501D054453FD1A88838B1042847
:1013000005D04FF4F071AFF2782004F0F9F9688954
:1013100038B1082805D040F2E111AFF28C2004F07A
:10132000EFF9E889B0F5007F06D028B14FF4F171EC
:10133000AFF2A42004F0E4F9A889B0F5807F06D0CC
:1013400028B140F2E311AFF2B82004F0D9F968896E
:1013500026F40061000641EA1040A98820F480606C
:10136000090640EA1146A88927F44051000541EAE0
:101370001040E989090540EA1147A780A4F81C80BC
:10138000E888A087268458E72DE9F047DFF84C91DC
:10139000DFF84CA104460D46484513D0B4F1804F08
:1013A00010D0504884420DD04F4884420AD04F4854
:1013B000844207D0544505D04FF40471AFF2303069
:1013C00004F09EF9288878B110280DD020280BD081
:1013D000302809D0602807D0702805D040F21121AC
:1013E000AFF2543004F08CF9688838B1012805D088
:1013F00040F21221AFF2683004F082F9288938B146
:10140000022805D040F21321AFF27C3004F078F9C5
:10141000208C20F480502084208CA688A18B2A88E0
:1014200021F4E641120641EA124720F400512889CE
:10143000000741EA10406988090740EA11484C4515
:1014400001D0544510D1A889B0F5807F06D028B1CD
:101450004FF40C71AFF2C83004F052F9A98926F4A8
:101460008040890540EA1146A680A783E888A4F851
:101470004000A4F82080E0E670B5044617480D4609
:10148000844214D0B4F1804F11D0164884420ED05B
:10149000154884420BD01548844208D01048844235
:1014A00005D040F67611AFF2184004F029F95DB18D
:1014B000042D09D0082D07D00C2D05D040F677114A
:1014C000AFF2344004F01CF9A08B20F44060A083FC
:1014D000A08B40EA0520A08370BD0000002C0140D5
:1014E000003401400004004000080040000C0040AF
:1014F000004C0140001800400040014070B5044617
:10150000FF480D46844214D0B4F1804F11D0FD48FD
:1015100084420ED0FC4884420BD0FC48844208D060
:10152000FB48844205D04FF41661AFF29C4004F0B2
:10153000E7F85DB1042D09D0082D07D00C2D05D09A
:1015400040F66111AFF2B84004F0DAF8A08B20F059
:101550000C00A083A08B2843A083BDE770B5044690
:10156000E7480D4684421DD0B4F1804F1AD0E548BB
:10157000844217D0E448844214D0E448844211D015
:10158000E34884420ED0E34884420BD0E2488442D0
:1015900008D0E248844205D040F64A11AFF210501C
:1015A00004F0AEF85DB1042D09D0082D07D00C2D44
:1015B00005D040F64B11AFF2285004F0A1F8208B73
:1015C00020F440602083208B40EA0520208383E7BD
:1015D00070B5048C24F010040484068B048C26F46B
:1015E00073461B0746EA1343120643EA12420D05EF
:1015F000C34B2D0C98420ED0C54B98420BD0B0F186
:10160000804F08D0BF4B984205D0BF4B984202D0C4
:10161000BE4B984205D124F02001294341F010012E
:1016200004E024F0A0030B4343F010010283018483
:1016300052E770B50446B2480D4684422FD0B4F14B
:10164000804F2CD0AF48844229D0AF48844226D066
:10165000AE48844223D0AE48844220D0AD48844274
:101660001DD0AF4884421AD0AE48844217D0AA4851
:10167000844214D0AC48844211D0AC4884420ED08D
:10168000A64884420BD0AA48844208D0A948844284
:1016900005D040F63411AFF2086004F031F85DB1C6
:1016A000042D09D0082D07D00C2D05D040F635119A
:1016B000AFF2246004F024F8208B20F00C0020838B
:1016C000208B2843208307E730B5048C24F00104E5
:1016D0000484058B048C1B0542EA134325F0F305B3
:1016E000874A2B4390420ED0894A90420BD0B0F1EA
:1016F000804F08D0834A904205D0834A904202D05E
:10170000824A904202D124F0020201E024F00A024F
:101710000A4342F001010383018430BD2DE9F05FEB
:10172000044608880D4658B1042809D0082807D077
:101730000C2805D040F24E21AFF2AC6003F0E0FF80
:10174000A888012809D0022807D0032805D040F234
:101750004F21AFF2C46003F0D3FFE88858B10428EA
:1017600009D0082807D00C2805D04FF41471AFF227
:10177000E06003F0C5FF28890F2805D940F2512108
:10178000AFF2F46003F0BCFFDFF874B15D4E5E4F62
:10179000DFF87881DFF878914FF0804A5C4509D016
:1017A0004C4507D0544505D0B44203D0BC4201D0CB
:1017B000444506D1688880B102280ED040F25621F7
:1017C00007E0688848B1022807D00A2805D040F20F
:1017D0005A21AFF2447003F093FF28884D494E4AD6
:1017E0004E4BF0B3042874D00828454870D084428A
:1017F0000FD054450DD0B4420BD0BC4209D0444563
:1018000007D04C4505D04FF41F71AFF27C7003F048
:1018100077FFB5F802B0A988B5F808C0208C20F48D
:1018200080502084A28B208C22F47342090642EA65
:1018300011414FEA0C7241EA12424FEA0B733049F0
:101840001B0C8C4209D04C4507D0544505D0B442FE
:1018500003D0BC4201D044456ED120F4005018435F
:10186000C1E0FFE75C4527D0544525D0B44223D0E2
:10187000BC4221D044451FD04C451DD08C421BD0CA
:101880002748844218D02748844215D0944213D068
:101890002548844210D0254884420DD09C420BD06C
:1018A0002348844208D02348844205D040F25E2178
:1018B000AFF6240003F024FF2B89AA88698820460C
:1018C000FFF702FFE9882046BDE8F05FB1E600E0DF
:1018D00040E05C4533D0544531D0B4422FD0BC42B7
:1018E0002DD044452BD04C4529D08C4227D0944252
:1018F00025D09C4223D04FF41A71AFF66C001CE047
:10190000002C01400004004000080040000C004092
:1019100000340140004C01400018004000400140EC
:101920000050014000540140001C004000200040D5
:10193000004401400048014051E003F0E1FE2B89E2
:10194000AA8869882046FFF743FEE9882046BDE85B
:10195000F05F03E684420FD054450DD0B4420BD063
:10196000BC4209D0444507D04C4505D040F2722115
:10197000AFF6E40003F0C4FEB5F802B0AB882889E6
:10198000218C21F480712184A28B218C00054FEAE7
:101990000B6C22F0F30243EA10404FEA1C4C104358
:1019A000FF4A944209D04C4507D0544505D0B44273
:1019B00003D0BC4201D0444504D121F4007141EA76
:1019C0000C0103E021F4206141EA0B0141F4807134
:1019D000A0832184E9882046BDE8F05F8EE520F4ED
:1019E000024040EA0B0040F48050A2832084E98842
:1019F0002046BDE8F05F3FE52DE9F0410546E848A7
:101A0000002601270C4685421DD0B5F1804F1AD023
:101A1000E448854217D0E448854214D0E348854223
:101A200011D0E34885420ED0E24885420BD0E2480F
:101A3000854208D0E148854205D040F29321AFF6B7
:101A4000B01003F05DFE618801B90226A288012A68
:101A500000D10227208823890028284610D0FFF7CC
:101A6000B7FDE1882846FFF779FD23893A463146DC
:101A70002846FFF729FEE1882846BDE8F041D8E571
:101A8000FFF722FEE1882846FFF7D3FD23893A4677
:101A900031462846FFF79CFDE1882846BDE8F04125
:101AA0005CE570B50546BE480C46854211D0C0487D
:101AB00085420ED0C14885420BD0C148854208D02E
:101AC000C048854205D040F2CB21AFF63C2003F060
:101AD00017FE2088B0F5006F06D028B14FF433719F
:101AE000AFF6542003F00CFE6088B0F5806F06D08E
:101AF00028B140F2CD21AFF6682003F001FEA088A6
:101B000070B1B0F5807F0BD0B0F5007F08D0B0F594
:101B1000407F05D040F2CE21AFF68C2003F0F0FDDF
:101B20002089B0F5805F06D028B140F2CF21AFF612
:101B3000A02003F0E5FD608940B1B0F5005F05D05D
:101B40004FF43471AFF6B82003F0DAFDA089B0F598
:101B5000804F06D028B140F2D121AFF6CC2003F05F
:101B6000CFFD20886288A188E38810431943228929
:101B7000084361891043A28908431043A5F8440033
:101B8000AAE44FF6FF71818000210180C18041806D
:101B9000017270470021018041808180C1800181F4
:101BA00041818181C18170470021018041800122F2
:101BB0008280C18001817047002101804180818045
:101BC000C180018141818181704770B504467448AC
:101BD0000D46844235D0B4F1804F32D071488442F2
:101BE0002FD0714884422CD07048844229D0764846
:101BF000844226D07548844223D06D48844220D048
:101C00006C4884421DD0724884421AD07148844284
:101C100017D06948844214D06F48844211D06F486D
:101C200084420ED0654884420BD06548844208D077
:101C30006448844205D040F22931AFF6AC3003F05D
:101C40005FFD5DB1012D05D040F22A31AFF6C03005
:101C500003F056FD208840F0010002E0208820F0CB
:101C60000100208038E470B504464D480D4684429A
:101C700011D04F4884420ED0504884420BD0504877
:101C8000844208D04F48844205D040F24231AFF63A
:101C9000004003F035FD65B1012D05D040F2433120
:101CA000AFF6144003F02CFD34F8440F40F400402C
:101CB00003E034F8440FC0F30E0020800CE470B54C
:101CC000044637480D461646844235D0B4F1804F5D
:101CD00032D0344884422FD0334884422CD0334809
:101CE000844229D03848844226D03848844223D0C0
:101CF0002F48844220D02F4884421DD0344884424B
:101D00001AD03448844217D02B48844214D0324829
:101D1000844211D0314884420ED0284884420BD0EE
:101D20002748844208D02748844205D040F26B31CE
:101D3000AFF6A44003F0E4FC280A00D12DB94FF41B
:101D40005B71AFF6B44003F0DBFC56B1012E05D059
:101D500040F26D31AFF6C84003F0D2FCA0892843B1
:101D600001E0A089A843A08131E470B504460C4885
:101D70000D46844256D0B4F1804F53D00948844276
:101D800050D0094884424DD0084884424AD00E4879
:101D9000844247D00D48844244D0054884421FE025
:101DA000002C01400004004000080040000C0040EE
:101DB00000340140004C0140001800400040014048
:101DC0000044014000480140001000400014004061
:101DD0000050014000540140001C00400020004021
:101DE00020D0F84884421DD0F74884421AD0F748E2
:101DF000844217D0F648844214D0F648844211D069
:101E0000F54884420ED0F54884420BD0F448844211
:101E100008D0F448844205D04FF46471AFF6905076
:101E200003F06EFC280A00D12DB940F29131AFF6D3
:101E3000A05003F065FCA58245E470B50646EA486B
:101E40000C46154686421DD0B6F1804F1AD0E748A1
:101E5000864217D0E648864214D0E648864211D022
:101E6000E54886420ED0DD4886420BD0DC488642EB
:101E700008D0DC48864205D04FF46B71AFF6F050C5
:101E800003F03EFC4CB3012C27D0022C25D0032CB0
:101E900023D0042C21D0052C1FD0062C1DD0072CBC
:101EA0001BD0082C19D0092C17D00A2C15D00B2CBC
:101EB00013D00C2C11D00D2C0FD00E2C0DD00F2CBC
:101EC0000BD0102C09D0112C07D0122C05D040F2C9
:101ED000AD31AFF6446003F013FCC5B3B5F5807FB8
:101EE00035D0B5F5007F32D0B5F5407F2FD0B5F5B0
:101EF000806F2CD0B5F5A06F29D0B5F5C06F26D076
:101F0000B5F5E06F23D0B5F5006F20D0B5F5106FB3
:101F10001DD0B5F5206F1AD0B5F5306F17D0B5F5D7
:101F2000406F14D0B5F5506F11D0B5F5606F0ED07D
:101F3000B5F5706F0BD0B5F5805F08D0B5F5885F4B
:101F400005D040F2AE31AFF6B86003F0D9FB2C43B8
:101F5000A6F8484014E670B50446A3480D46164658
:101F6000844223D0B4F1804F20D0A04884421DD0B9
:101F70009F4884421AD09F48844217D09F48844289
:101F800014D09F48844211D09B4884420ED093487D
:101F900084420BD09248844208D09248844205D0B3
:101FA00040F2C731AFF6187003F0AAFB35F4FE40DB
:101FB00000D12DB94FF47271AFF62C7003F0A0FB75
:101FC00056B1012E05D040F2C931AFF63C7003F096
:101FD00097FBA089284301E0A089A843A081CFE511
:101FE00010B50446804884421DD0B4F1804F1AD009
:101FF0007E48844217D07E48844214D07D48844273
:1020000011D07D4884420ED06E4884420BD0704877
:10201000844208D07148844205D04FF47871AFF6FD
:10202000907003F06DFB208920F00700208110BD27
:1020300070B504466C480D4684421DD0B4F1804F03
:102040001AD06A48844217D06948844214D069483B
:10205000844211D0684884420ED05A4884420BD042
:102060005B48844208D05D48844205D040F2D141AB
:10207000AFF6E47003F044FB95B1102D10D0202D85
:102080000ED0302D0CD0402D0AD0502D08D0602D10
:1020900006D0702D04D040F2D2415A4803F030FBF4
:1020A000208920F070002843208169E570B504463E
:1020B0004D480D4684421CD0B4F1804F19D04B4896
:1020C000844216D04A48844213D04A48844210D0F1
:1020D000494884420DD03B4884420AD03C4884425F
:1020E00007D03E48844204D040F2F331454803F023
:1020F00007FB55B1102D08D0202D06D0302D04D06F
:102100004FF47D713F4803F0FBFA29462046FFF764
:102110008FFF208940F00700208131E52DE9F04153
:10212000044631480D4616461F4684421CD0B4F181
:10213000804F19D02D48844216D02D48844213D0A8
:102140002C48844210D02C4884420DD01D48844233
:102150000AD01F48844207D02048844204D040F26D
:102160000F41284803F0CCFA502D08D0602D06D03E
:10217000402D04D04FF48261224803F0C1FA36B1F9
:10218000022E04D040F211411E4803F0B9FA0F2F7D
:1021900004D940F212411B4803F0B2FA602D3B46CD
:1021A0004FF00102314620462ED0FFF78DFA294626
:1021B0002046FFF73DFF208940F007002081BDE861
:1021C000F0810000004C01400050014000540140EB
:1021D00000180040001C004000200040004001406A
:1021E0000044014000480140002C01400004004030
:1021F00000080040000C0040003401400010004086
:102200000014004090100008FFF7E2F9CFE72DE935
:10221000F04104460D4616461F46FF48844213D03F
:10222000B4F1804F10D0FD4884420DD0FC48844268
:102230000AD0FC48844207D0FB48844204D040F2D4
:102240008141FA4803F05CFA6DB1B5F5805F0AD0C0
:10225000B5F5005F07D0B5F5405F04D040F282418C
:10226000F24803F04DFAB6F5004F05D026B140F222
:102270008341EE4803F044FA0F2F04D940F2844121
:10228000EA4803F03DFA2089C1B246EA0720284314
:102290000843208193E72DE9F0410446DE480D46CE
:1022A00016461F46844213D0B4F1804F10D0DB484D
:1022B00084420DD0DA4884420AD0DA48844207D0FA
:1022C000D948844204D04FF48761D84803F018FA03
:1022D0006DB1B5F5805F0AD0B5F5005F07D0B5F5F3
:1022E000405F04D040F23941D04803F009FAB6F516
:1022F000004F05D026B140F23A41CC4803F000FA35
:102300000F2F04D940F23B41C84803F0F9F93B468E
:10231000324629462046FFF77AFF208940F07700B1
:1023200020814CE72DE9F0410446BB480D46164696
:102330001F46844213D0B4F1804F10D0B748844276
:102340000DD0B74884420AD0B648844207D0B64878
:10235000844204D040F26141B44803F0D1F96DB138
:10236000B5F5805F0AD0B5F5005F07D0B5F5405FE1
:1023700004D040F26241AD4803F0C2F9B6F5004F17
:1023800005D026B140F26341A84803F0B9F90F2FF8
:1023900004D940F26441A54803F0B2F93B46324605
:1023A00029462046FFF733FF208940F480402081F2
:1023B00005E770B5044698480E461546844234D069
:1023C000B4F1804F31D0954884422ED09448844255
:1023D0002BD09448844228D09548844225D09548F3
:1023E000844222D0904884421FD0934884421CD01B
:1023F0009248844219D09248844216D0914884422F
:1024000013D09148844210D0904884420DD0904817
:1024100084420AD08F48844207D08F48844204D037
:1024200040F29B41814803F06BF935B1012D04D096
:1024300040F29C417D4803F063F92685A58211E4B2
:1024400070B5044674480D46844213D0B4F1804FF1
:1024500010D0724884420DD0714884420AD071482D
:10246000844207D07048844204D040F2B3416F48A0
:1024700003F046F965B1102D0AD0202D08D0402D6B
:1024800006D0602D04D040F2B441684803F038F91A
:10249000208820F07000284320800FE42DE9F041CF
:1024A00004465D480D4616461F46844216D0B4F1D8
:1024B000804F13D05948844210D0594884420DD0DF
:1024C000584884420AD05848844207D06048844221
:1024D00004D04FF49F61554803F012F9012D08D044
:1024E000022D06D0032D04D040F2F9414F4803F0ED
:1024F00007F936B1022E04D040F2FA414B4803F0FE
:10250000FFF837B1022F04D040F2FB41474803F0F7
:10251000F7F82189208B228C4FF6FC43184040F2BB
:10252000011321F007011843294322F0220346EA50
:1025300007121A4321812083228440E670B50446A5
:1025400035480D4684422ED0B4F1804F2BD033480D
:10255000844228D03248844225D03248844222D056
:10256000314884421FD0344884421CD033488442CE
:1025700019D03348844216D03248844213D03248AE
:10258000844210D0314884420DD0314884420AD070
:102590003048844207D03048844204D040F227516A
:1025A000224803F0ADF8502D06D0402D04D04FF452
:1025B000A5611E4803F0A4F8208B20F0700028438A
:1025C000208339E470B5044613480D4684421CD07C
:1025D000B4F1804F19D01148844216D0104884427B
:1025E00013D01048844210D00F4884420DD01248B6
:1025F00084420AD01348844207D01548844204D04C
:1026000040F23F51094803F07BF8502D29D0402D6E
:1026100027D04FF4A86121E0002C014000040040C5
:1026200000080040000C00400034014090100008F9
:102630000010004000140040004C014000500140D8
:102640000054014000180040001C004000200040E1
:10265000004001400044014000480140FC4803F0B4
:102660004FF8208B20F4E04141EA0520208371E4FB
:1026700070B50446F7480D46844213D0B4F1804F3C
:1026800010D0F54884420DD0F44884420AD0F44872
:10269000844207D0F348844204D040F25751EC48BA
:1026A00003F02EF8502D06D0402D04D04FF4AB612E
:1026B000E74803F025F8A08B20F070002843A083A2
:1026C00048E470B50446E3480D46844213D0B4F1A3
:1026D000804F10D0E04884420DD0E04884420AD0B8
:1026E000DF48844207D0DF48844204D040F26F5173
:1026F000D74803F005F8502D06D0402D04D04FF4F4
:10270000AE61D34802F0FCFFA08B20F4E04141EA27
:102710000520A0831EE470B50446CE480D468442D1
:1027200034D0B4F1804F31D0CB4884422ED0CB4846
:1027300084422BD0CA48844228D0CB48844225D03A
:10274000CA48844222D0C74884421FD0C848844225
:102750001CD0C848844219D0C748844216D0C74804
:10276000844213D0C648844210D0C64884420DD05B
:10277000C54884420AD0C548844207D0C448844230
:1027800004D040F28451B24802F0BAFF55B1012D95
:1027900004D040F28551AE4802F0B2FF208840F0EC
:1027A000800002E0208820F08000208017E470B5CF
:1027B0000446A8480D46844210D0AA4884420DD051
:1027C000B14884420AD0B148844207D0B04884421C
:1027D00004D040F29C519E4802F092FF55B1012D69
:1027E00004D040F29D519A4802F08AFFA08840F040
:1027F000040002E0A08820F00400A08055E470B539
:10280000044694480D4684421CD0B4F1804F19D040
:102810009148844216D09148844213D09048844213
:1028200010D0904884420DD0974884420AD09748EF
:10283000844207D09648844204D040F2B55184487F
:1028400002F05EFF55B1012D04D040F2B651804830
:1028500002F056FFA08840F0080002E0A08820F0B7
:102860000800A08021E470B504467A480D468442F1
:1028700016D0B4F1804F13D07748844210D07748F7
:1028800084420DD0764884420AD07648844207D0EC
:102890007D48844204D040F2CE516D4802F030FFB2
:1028A00055B1012D04D040F2CF51694802F028FF04
:1028B000A08840F0010002E0A08820F00100A08084
:1028C0002BE470B5044663480D4684422ED0B4F123
:1028D000804F2BD06048844228D06048844225D065
:1028E0005F48844222D05F4884421FD060488442BF
:1028F0001CD06048844219D05F48844216D05F489B
:10290000844213D05E48844210D05E4884420DD089
:102910005D4884420AD05D48844207D05C488442C6
:1029200004D040F2E9514A4802F0EAFE082D05D0F1
:1029300025B140F2EA51464802F0E2FE208B20F039
:102940000800284320837AE570B5044641480D46C7
:1029500084421CD0B4F1804F19D03F48844216D035
:102960003E48844213D03E48844210D03D488442C1
:102970000DD03F4884420AD04048844207D04248A4
:10298000844204D040F20261314802F0B9FE082DC1
:1029900005D025B140F203612D4802F0B1FE208B35
:1029A00020F4006141EA0520208348E570B5044623
:1029B00028480D46844213D0B4F1804F10D02648E9
:1029C00084420DD0254884420AD02548844207D04D
:1029D0002448844204D040F21A611D4802F090FE5F
:1029E000082D05D025B140F21B61194802F088FE80
:1029F000A08B20F008002843A08320E570B5044692
:102A000014480D46844213D0B4F1804F10D01248C0
:102A100084420DD0114884420AD01148844207D024
:102A20001048844204D040F23261094802F068FE46
:102A3000082D05D025B140F23361054802F060FE53
:102A4000A08B20F4006141EA0520A083F7E4000098
:102A500090100008002C01400004004000080040D5
:102A6000000C004000340140001000400014004001
:102A7000004C01400050014000540140001800404B
:102A8000001C004000200040004001400044014084
:102A90000048014070B50446FF480D4684422ED0E0
:102AA000B4F1804F2BD0FD48844228D0FC488442AA
:102AB00025D0FC48844222D0FB4884421FD0FB48EA
:102AC00084421CD0FA48844219D0FA48844216D075
:102AD000F948844213D0F948844210D0F84884421F
:102AE0000DD0F84884420AD0F748844207D0F7480E
:102AF000844204D040F24A61F54802F001FE042D00
:102B000005D025B140F24B61F14802F0F9FD208B70
:102B100020F004002843208391E470B50446DE4889
:102B20000D4684421CD0B4F1804F19D0DB4884425A
:102B300016D0DB48844213D0DA48844210D0DA48F9
:102B400084420DD0D94884420AD0DB48844207D061
:102B5000DC48844204D040F26461DD4802F0D0FDDC
:102B6000042D05D025B140F26561D94802F0C8FDB9
:102B7000208B20F4806141EA052020835FE470B55A
:102B80000446C5480D46844213D0B4F1804F10D09E
:102B9000C24884420DD0C24884420AD0C14884420F
:102BA00007D0C148844204D040F27D61C84802F099
:102BB000A7FD042D05D025B140F27E61C44802F086
:102BC0009FFDA08B20F004002843A08337E470B55C
:102BD0000446B1480D46844213D0B4F1804F10D062
:102BE000AE4884420DD0AE4884420AD0AD488442FB
:102BF00007D0AD48844204D040F29661B44802F058
:102C00007FFD042D05D025B140F29761B04802F058
:102C100077FDA08B20F4806141EA0520A0830EE4BB
:102C200070B504469C480D46844213D0B4F1804FE1
:102C300010D09A4884420DD0994884420AD09948CD
:102C4000844207D09848844204D040F2AF61A04843
:102C500002F056FD802D05D025B14FF4D6619C4879
:102C600002F04EFD208B20F080002843208314E4E6
:102C700070B5044688480D46844213D0B4F1804FA5
:102C800010D0864884420DD0854884420AD08548B9
:102C9000844207D08448844204D040F2C9618C4801
:102CA00002F02EFD802D05D025B140F2CA61884882
:102CB00002F026FD208BC0F30E0141EA052020839F
:102CC0007FE470B5044674480D46844213D0B4F1D5
:102CD000804F10D0714884420DD0714884420AD090
:102CE0007048844207D07048844204D040F2E161C9
:102CF000774802F005FD802D05D025B140F2E26154
:102D0000734802F0FDFCA08B20F080002843A083D4
:102D100057E470B5044660480D46844213D0B4F1C0
:102D2000804F10D05D4884420DD05D4884420AD067
:102D30005C48844207D05C48844204D040F2F96188
:102D4000634802F0DDFC802D05D025B140F2FA6128
:102D50005F4802F0D5FCA08BC0F30E0141EA0520CC
:102D6000A0832EE470B504464B480D4684422ED015
:102D7000B4F1804F2BD04948844228D0484884423F
:102D800025D04848844222D0474884421FD0474833
:102D900084421CD04648844219D04648844216D00A
:102DA0004548844213D04548844210D04448844268
:102DB0000DD0444884420AD04348844207D0434857
:102DC000844204D040F21171414802F099FC35B1BF
:102DD000022D04D040F212713D4802F091FC208C8B
:102DE00020F002002843208441E470B504462A48BC
:102DF0000D46844210D02C4884420DD03148844284
:102E00000AD03148844207D03048844204D04FF47D
:102E1000E5612F4802F074FC35B1082D04D040F272
:102E200029712B4802F06CFC208C20F0080028430C
:102E300020841CE470B5044617480D4684421CD01B
:102E4000B4F1804F19D01548844216D014488442FA
:102E500013D01448844210D0134884420DD0134834
:102E600084420AD01448844207D01648844204D0D1
:102E70004FF4E861164802F043FC35B1022D04D04E
:102E800040F24171124802F03BFC208C20F02001FE
:102E900041EA0510208413E4002C014000040040A6
:102EA00000080040000C004000340140004C01408C
:102EB000005001400054014000180040001C004038
:102EC0000020004000400140004401400048014013
:102ED0009010000870B50446FF480D46844207D0A4
:102EE000FE48844204D040F25771FD4802F008FCCD
:102EF00035B1082D04D04FF4EB61F94802F000FC25
:102F0000208C20F0800141EA051020844EE470B549
:102F10000446F1480D46844213D0B4F1804F10D0DE
:102F2000F04884420DD0F04884420AD0EF488442F1
:102F300007D0EA48844204D040F26F71E84802F0BA
:102F4000DFFB35B1022D04D04FF4EE61E44802F00E
:102F5000D7FB208C20F4007141EA0520208425E471
:102F600070B50446DC480D46844207D0DB488442F5
:102F700004D040F28771DA4802F0C2FB35B1082D67
:102F800004D04FF4F161D64802F0BAFB208C20F453
:102F9000006141EA0520208408E470B50446CE486B
:102FA0000D46844213D0B4F1804F10D0CD488442F6
:102FB0000DD0CD4884420AD0CC48844207D0C748BF
:102FC000844204D040F29F71C54802F099FB35B1AC
:102FD000022D04D04FF4F461C14802F091FB208C23
:102FE00020F4005141EA0530208407E470B504461E
:102FF000B9480D46164684422ED0B4F1804F2BD0EE
:10300000B848844228D0B848844225D0B748844282
:1030100022D0B24884421FD0B54884421CD0B54863
:10302000844219D0B448844216D0B448844213D0A4
:10303000B348844210D0B34884420DD0B248844291
:103040000AD0B248844207D0B148844204D040F24A
:10305000BB71A34802F054FB55B1042D08D0082DD4
:1030600006D00C2D04D040F2BC719D4802F048FB04
:10307000012E05D026B140F2BD71994802F040FB07
:103080000120218CA84081432184208CAE40304314
:10309000208415E470B504468F480D4616468442D8
:1030A00010D08E4884420DD0974884420AD0974869
:1030B000844207D09648844204D040F2D9718848AF
:1030C00002F01EFB45B1042D06D0082D04D040F2BD
:1030D000DA71834802F014FB042E05D026B140F2C9
:1030E000DB717F4802F00CFB0420218CA840814357
:1030F0002184208CAE403043208424E470B5044603
:1031000075480E46154684422ED0B4F1804F2BD020
:103110007448844228D07448844225D0734884423D
:1031200022D06E4884421FD0714884421CD071481E
:10313000844219D07048844216D07048844213D01B
:103140006F48844210D06F4884420DD06E4884424C
:103150000AD06E48844207D06D48844204D040F6BD
:1031600003015F4802F0CCFA56B1042E08D0082EB5
:1031700006D00C2E04D040F60401594802F0C0FAE3
:1031800095B1102D10D0202D0ED0302D0CD0602DEB
:103190000AD0702D08D0502D06D0402D04D040F616
:1031A00005014F4802F0ACFA0121228C04F118000D
:1031B000B1408A4322847EB1082E0DD0361FB1B2B1
:1031C00000EB5100016821F4E041016001682A062A
:1031D00041EA1241016010E400EB5600016821F061
:1031E0007001016001682943F4E770B504463A486C
:1031F0000D46844234D0B4F1804F31D039488442F6
:103200002ED0394884422BD03848844228D04148B7
:10321000844225D04048844222D0304884421FD086
:10322000334884421CD03348844219D03248844207
:1032300016D03248844213D03148844210D03148ED
:1032400084420DD0304884420AD03048844207D0AE
:103250002F48844204D040F62F01214802F050FA52
:1032600055B1012D04D04FF403611D4802F048FA16
:10327000208840F0020002E0208820F00200208038
:103280004AE470B5044614480D46844257D0B4F160
:10329000804F54D01348844251D0134884424ED0BA
:1032A000124884424BD01B48844248D01A4884427A
:1032B00045D00A48844242D00D4884423FD00D4850
:1032C00084423CD00C48844239D00C48844236D0E9
:1032D0000B48844233D021E0002C014000340140EF
:1032E000901000080004004000080040000C00405E
:1032F000004C0140005001400054014000180040C3
:10330000001C0040002000400040014000440140FB
:10331000004801400010004000140040FF48844273
:103320000DD0FF4884420AD0FE48844207D0FE48B0
:10333000844204D040F64B01FC4802F0E1F955B15B
:10334000012D04D040F64C01F84802F0D9F920884C
:1033500040F0040002E0208820F0040020800DE40A
:1033600070B50446F2480D4684421CD0B4F1804F3B
:1033700019D0F048844216D0EF48844213D0EF4869
:10338000844210D0EE4884420DD0EE4884420AD0E8
:10339000ED48844207D0E248844204D040F66301FD
:1033A000E24802F0ADF955B1012D04D040F66401B8
:1033B000DE4802F0A5F9A08840F0800002E0A08875
:1033C00020F08000A0802AE470B50446D8480D465D
:1033D000844234D0B4F1804F31D0D64884422ED0CC
:1033E000D54884422BD0D548844228D0D74884423F
:1033F00025D0D748844222D0D14884421FD0D1481A
:1034000084421CD0D348844219D0D348844216D079
:10341000CD48844213D0D148844210D0BF48844262
:103420000DD0BF4884420AD0BE48844207D0BE486F
:10343000844204D040F67D01BC4802F061F9082DB9
:1034400005D025B140F67E01B84802F059F9208830
:1034500020F00800208020882843208007E470B5F1
:103460000446B3480D46844222D0B4F1804F1FD0A9
:10347000B04884421CD0B048844219D0AF4884423E
:1034800016D0B248844213D0B148844210D0AC4820
:1034900084420DD0AB4884420AD0AB48844207D066
:1034A0009F48844204D040F69D01A04802F028F9CC
:1034B00095B1102D10D0202D0ED0302D0CD0402DD8
:1034C0000AD0502D08D0602D06D0702D04D040F6C3
:1034D0009E01964802F014F9A08820F07000A080A8
:1034E000A0882843A08013E470B5044690480D4698
:1034F00084421CD0B4F1804F19D08E48844216D03B
:103500008D48844213D08D48844210D08C48844228
:103510000DD08C4884420AD08B48844207D0804822
:10352000844204D040F6B401804802F0E9F8042D4A
:103530000AD0052D08D0062D06D0072D04D040F660
:10354000B5017A4802F0DCF8208920F007002081DC
:1035500020892843208104E470B5044674480D4650
:1035600084421CD0B4F1804F19D07248844216D0E6
:103570007148844213D07148844210D0704884420C
:103580000DD0704884420AD06F48844207D0644806
:10359000844204D040F6C901644802F0B1F8802D9D
:1035A00005D025B140F6CA01604802F0A9F820898B
:1035B00020F08000208120892843208114E470B508
:1035C00004465B480D46844234D0B4F1804F31D07C
:1035D000584884422ED0584884422BD057488442C1
:1035E00028D05A48844225D05948844222D0544891
:1035F00084421FD0534884421CD05648844219D07C
:103600005548844216D05048844213D053488442CF
:1036100010D0424884420DD0414884420AD04148EB
:10362000844207D04048844204D040F6DB013F4842
:1036300002F066F8A5842EE470B504463C480D46B9
:10364000844234D0B4F1804F31D03A4884422ED0F5
:10365000394884422BD03948844228D03B488442A0
:1036600025D03B48844222D0354884421FD035487B
:1036700084421CD03748844219D03748844216D03F
:103680003148844213D03548844210D023488442C4
:103690000DD0234884420AD02248844207D02248D1
:1036A000844204D040F6E901204802F029F8A585BB
:1036B0002CE470B504461E480D46844252D0B4F145
:1036C000804F4FD01B4884424CD01B48844249D085
:1036D0001A48844246D01A48844243D0194884424A
:1036E00040D01C4884423DD01B4884423AD0164802
:1036F000844237D01948844234D00848844231D0BB
:10370000074884422ED0074884422BD00648844282
:1037100028D040F6F701054822E0000000200040D4
:103720000040014000440140004801409010000862
:10373000002C01400004004000080040000C004044
:1037400000340140004C01400018004000100040CF
:10375000001400400050014000540140001C004093
:1037600001F0CEFFA58617E470B50446FF480D466C
:1037700084421CD0B4F1804F19D0FD48844216D049
:10378000FC48844213D0FC48844210D0FB48844259
:103790000DD0FB4884420AD0FA48844207D0FA4848
:1037A000844204D040F60511F84801F0A9FF2587AE
:1037B0001BE470B50446ED480D46844213D0B4F1C5
:1037C000804F10D0EA4884420DD0EA4884420AD0A3
:1037D000E948844207D0E948844204D040F61311F6
:1037E000EA4801F08DFFA58753E470B50446DF4831
:1037F0000D46844213D0B4F1804F10D0DC4884428F
:103800000DD0DC4884420AD0DB48844207D0DB4834
:10381000844204D040F62111DC4801F071FFA4F885
:10382000405036E470B50446D0480D4684422ED050
:10383000B4F1804F2BD0CE48844228D0CD4884426A
:1038400025D0CD48844222D0CC4884421FD0CC48D9
:1038500084421CD0CE48844219D0CE48844216D02F
:10386000C848844213D0CC48844210D0CB4884420C
:103870000DD0C54884420AD0C948844207D0C948FF
:10388000844204D040F68C11C04801F039FF55B194
:10389000B5F5807F07D0B5F5007F04D040F68D11D7
:1038A000BA4801F02DFF208820F440702080208845
:1038B0002843208021E410B50446AC4884422ED031
:1038C000B4F1804F2BD0AA48844228D0A948844222
:1038D00025D0A948844222D0A84884421FD0A848B5
:1038E00084421CD0AA48844219D0AA48844216D0E7
:1038F000A448844213D0A848844210D0A7488442E8
:103900000DD0A14884420AD0A548844207D0A548DA
:10391000844204D040F69C119C4801F0F1FEA08E38
:1039200010BD10B50446914884421CD0B4F1804FBC
:1039300019D08F48844216D08E48844213D08E48C6
:10394000844210D08D4884420DD08D4884420AD0E4
:103950008C48844207D08C48844204D040F6A91198
:103960008A4801F0CDFE208F10BD10B504467F4877
:10397000844213D0B4F1804F10D07D4884420DD0E2
:103980007C4884420AD07C48844207D07B488442E9
:1039900004D040F6B6117D4801F0B2FEA08F10BDF4
:1039A00010B504467148844213D0B4F1804F10D052
:1039B0006F4884420DD06F4884420AD06E488442DA
:1039C00007D06E48844204D040F6C3116F4801F01E
:1039D00097FEB4F8400010BD10B504466348844219
:1039E00034D0B4F1804F31D0614884422ED0614848
:1039F00084422BD06048844228D06B48844225D032
:103A00006A48844222D05D4884421FD05C48844288
:103A10001CD05F48844219D05E48844216D0594871
:103A2000844213D05C48844210D05C4884420DD05C
:103A3000554884420AD05A48844207D059488442A3
:103A400004D04FF41D61514801F05AFEA08C10BD06
:103A500010B504464548844234D0B4F1804F31D08B
:103A6000434884422ED0434884422BD0424884426B
:103A700028D04D48844225D04C48844222D03F482B
:103A800084421FD03E4884421CD04148844219D011
:103A90004048844216D03B48844213D03E4884427A
:103AA00010D03E4884420DD0374884420AD03C486A
:103AB000844207D03B48844204D040F6DD113348AD
:103AC00001F01EFE208D10BD70B50446274800266B
:103AD0000D46844234D0B4F1804F31D02448844222
:103AE0002ED0244884422BD02348844228D02E480C
:103AF000844225D02D48844222D0204884421FD0C1
:103B00001F4884421CD02248844219D02148844254
:103B100016D01C48844213D01F48844210D01F483E
:103B200084420DD0184884420AD01D48844207D0F0
:103B30001C48844204D04FF42061144801F0E0FD99
:103B4000012D41D0022D3FD0042D3DD0082D3BD07A
:103B5000102D39D0202D37D0402D35D0802D33D0A9
:103B6000B5F5007F30D0B5F5806F21E0002C014025
:103B70000004004000080040000C004000340140F8
:103B8000004C014000180040004001409010000827
:103B90000050014000540140001C00400020004043
:103BA0000044014000480140001000400014004063
:103BB0000AD0B5F5006F07D0B5F5805F04D040F6A8
:103BC0000121784801F09CFD208A284200D001267E
:103BD000304643E470B5044673480D46844234D001
:103BE000B4F1804F31D0714884422ED07048844265
:103BF0002BD07048844228D06F48844225D06F482B
:103C0000844222D06E4884421FD06E4884421CD029
:103C10006D48844219D06D48844216D06C48844265
:103C200013D06C48844210D06B4884420DD06B484E
:103C300084420AD06A48844207D06A48844204D049
:103C400040F62B21574801F05BFD15F4614F00D180
:103C500025B940F62C21534801F052FDE84320825B
:103C600041E470B50446504800260D46844234D0E5
:103C7000B4F1804F31D04D4884422ED04C4884421C
:103C80002BD04C48844228D04B48844225D04B4806
:103C9000844222D04A4884421FD04A4884421CD0E1
:103CA0004948844219D04948844216D04848844241
:103CB00013D04848844210D0474884420DD047482A
:103CC00084420AD04648844207D04648844204D001
:103CD00040F64D21334801F013FD012D12D0022D85
:103CE00010D0042D0ED0082D0CD0102D0AD0202D70
:103CF00008D0402D06D0802D04D040F64E21294812
:103D000001F0FEFC208AA189284201EA050101D0C8
:103D100001B1012630461EE470B5044622480D4626
:103D2000844234D0B4F1804F31D0204884422ED028
:103D30001F4884422BD01F48844228D01E4884420A
:103D400025D01E48844222D01D4884421FD01D48E1
:103D500084421CD01C48844219D01C48844216D08E
:103D60001B48844213D01B48844210D01A48844216
:103D70000DD01A4884420AD01948844207D0194805
:103D8000844204D040F67721064801F0B9FC280AA5
:103D900000D125B940F67821024801F0B1FCE84392
:103DA00020820BE490100008002C01400004004029
:103DB00000080040000C00400010004000140040CB
:103DC00000340140004C01400050014000540140CB
:103DD00000180040001C004000200040004001404E
:103DE00000440140004801402DE9F0470446FF48E7
:103DF000844221D0FE4DFF4EFF4FDFF80084DFF8F4
:103E00000094DFF800A4AC420DD0B4420BD0BC4209
:103E100009D0444507D04C4505D0544503D06F2107
:103E2000F9A001F06DFCAC420DD101210820FCF796
:103E300044FE0021082033E001210420FCF73DFE70
:103E4000002104202CE0B44206D101211020FCF70F
:103E500034FE0021102023E0BC4206D101212020A5
:103E6000FCF72BFE002120201AE0444506D1012159
:103E70004020FCF722FE0021402011E04C4506D1F5
:103E800001218020FCF719FE0021802008E0544524
:103E90000AD101210C022046FCF70FFE002120462A
:103EA000BDE8F047FCF709BEBDE8F08710B5012179
:103EB0000846FCF702FE0021BDE810400120FCF797
:103EC000FCBD2DE9F0410546C84800270E46854255
:103ED00015D0C748854212D0C64885420FD0C64883
:103EE00085420CD0C548854209D0C548854206D0D8
:103EF000C448854203D0B221C3A001F001FCF07890
:103F000088B104280FD028280DD048280BD01428B9
:103F100009D0102807D01C2805D0182803D0B321B9
:103F2000B9A001F0EDFB308818B9B421B6A001F0BA
:103F3000E7FBF078C10600F00F040CD5B07801283B
:103F400007D0022805D0032803D0BB21AEA001F082
:103F5000D7FBB078044330884FF00F084FF0010CC6
:103F600010F0FF0F1BD0296832880CFA07F00240CE
:103F7000824210D1BB0008FA03F221EA020204FADD
:103F800003F11143F278282A02D0482A02D002E035
:103F9000686100E028617F1C082FE5D32960308824
:103FA000FF281DD96968002202F108030CFA03F00A
:103FB0003388034083420FD1970008FA07F321EAC0
:103FC000030304FA07F11943F378282B00D1686141
:103FD000F378482B00D12861521C082AE4D3696089
:103FE000BDE8F0814FF6FF7101800221817004214C
:103FF000C170704770B505467C4800260C46854266
:1040000016D07B48854213D07A48854210D07A4832
:1040100085420DD0794885420AD07948854207D03B
:104020007848854204D04FF48F7177A001F068FB87
:10403000012C2AD0022C28D0042C26D0082C24D0E5
:10404000102C22D0202C20D0402C1ED0802C1CD014
:10405000B4F5807F19D0B4F5007F16D0B4F5806F29
:1040600013D0B4F5006F10D0B4F5805F0DD0B4F567
:10407000005F0AD0B4F5804F07D0B4F5004F04D0EC
:1040800040F21F1160A001F03BFBA868204200D065
:104090000126304670BD10B504465448844216D0FF
:1040A0005348844213D05348844210D0524884422B
:1040B0000DD0524884420AD05148844207D051481A
:1040C000844204D04FF49A714FA001F019FBA0680C
:1040D00080B210BD70B50546444800260C468542A6
:1040E00016D04348854213D04248854210D04248FA
:1040F00085420DD0414885420AD04148854207D0CB
:104100004048854204D04FF4A2713FA001F0F8FA74
:10411000012C2AD0022C28D0042C26D0082C24D004
:10412000102C22D0202C20D0402C1ED0802C1CD033
:10413000B4F5807F19D0B4F5007F16D0B4F5806F48
:1041400013D0B4F5006F10D0B4F5805F0DD0B4F586
:10415000005F0AD0B4F5804F07D0B4F5004F04D00B
:1041600040F2451128A001F0CBFAE868204200D0C7
:104170000126304670BD10B504461C48844216D056
:104180001B48844213D01B48844210D01A488442F2
:104190000DD01A4884420AD01948844207D01948E1
:1041A000844204D04FF4AD7117A001F0A9FAE06881
:1041B00080B210BD70B504460C480D46844243D011
:1041C0000B48844240D00B4884423DD00A48844288
:1041D0003AD00A48844237D00948844234D009484A
:1041E000844231D040F2691107A02BE00008014061
:1041F000000C014000100140001401400018014073
:10420000001C0140002001404C69627261726965C6
:10421000735C53544D3332463130785F537464507D
:1042200065726970685F4472697665725C73726307
:104230005C73746D3332663130785F6770696F2EEE
:104240006300000001F05CFA2DB94FF4B571AFF2D4
:10425000480001F055FA256170BD70B504460D4661
:10426000FF48844217D0FF48844214D0FE4884425D
:1042700011D0FE4884420ED0FD4884420BD0FD4848
:10428000844208D0FC48844205D040F27911AFF254
:10429000880001F035FA2DB94FF4BD71AFF29800E6
:1042A00001F02EFA656170BD70B50546EC480C460C
:1042B0001646854217D0EB48854214D0EA4885421D
:1042C00011D0EA4885420ED0E94885420BD0E94832
:1042D000854208D0E848854205D040F28D11AFF202
:1042E000D80001F00DFA012C2BD0022C29D0042C7F
:1042F00027D0082C25D0102C23D0202C21D0402CC6
:104300001FD0802C1DD0B4F5807F1AD0B4F5007F6B
:1043100017D0B4F5806F14D0B4F5006F11D0B4F598
:10432000805F0ED0B4F5005F0BD0B4F5804F08D09D
:10433000B4F5004F05D04FF4C771AFF2341001F05F
:10434000DFF94EB1012E05D040F28F11AFF24810C7
:1043500001F0D6F92C6170BD6C6170BD70B504467A
:10436000BF480D46844217D0BE48844214D0BE4890
:10437000844211D0BD4884420ED0BD4884420BD047
:10438000BC48844208D0BC48844205D04FF4D27166
:10439000AFF28C1001F0B4F9E56070BD70B5044661
:1043A000AF480D46844217D0AE48844214D0AE4880
:1043B000844211D0AD4884420ED0AD4884420BD027
:1043C000AC48844208D0AC48844205D040F2B511D4
:1043D000AFF2CC1001F094F92DB94FF4DB71AFF2CC
:1043E000D81001F08DF945F48030A061A561A0617D
:1043F000A069A06970BD70B505000C460DD0012DF7
:104400000BD0022D09D0032D07D0042D05D04FF479
:10441000E971AFF20C2001F073F91CB3012C21D02B
:10442000022C1FD0032C1DD0042C1BD0052C19D01E
:10443000062C17D0072C15D0082C13D0092C11D01E
:104440000A2C0FD00B2C0DD00C2C0BD00D2C09D01E
:104450000E2C07D00F2C05D040F2D311AFF258200C
:1044600001F04EF9854908684FF68072104040EA25
:1044700005102043086070BD10B5040007D0012C62
:1044800005D04FF4F371AFF2802001F039F97C4888
:10449000C46110BD2DE9F04104460D4601287ED0CF
:1044A000022C7CD0042C7AD0082C78D0A4F5A01053
:1044B00010387DD020387BD0A4F5B010403877D0AC
:1044C000803875D06F48844272D06F4884426FD074
:1044D0006E4884426CD06E48844269D06D488442F4
:1044E00066D0B4F5805F63D0B4F5EA1F60D0B4F550
:1044F000EB1F5DD0B4F5004F5AD06748844257D0C7
:10450000A4F50010801E53D0801E51D0001F4FD044
:1045100008384DD0B4F1201F4AD0303848D05F4819
:10452000844245D05E48844242D05E4884423FD0B7
:104530005D4884423CD05D48844239D0B4F5011FC7
:1045400036D05B48844233D0401C844230D0801C3B
:1045500084422DD0001D84422AD055480F30844219
:1045600026D053481F30844222D051483F308442E5
:104570001ED04F487F3084421AD04D48FF308442CD
:1045800016D04C48844213D04B48844210D04B483C
:1045900084420DD04A4884420AD04A4800E007E0ED
:1045A000844205D040F22A21AFF2A43001F0A8F8ED
:1045B0003DB1012D05D040F22B21AFF2B43001F016
:1045C0009FF82E49002C01DACA6900E04A68600DA4
:1045D0000001A3B2C4F301578340C4F30346032F81
:1045E00005D0E0020AD50320B040824307E022F064
:1045F00070604A6822F070624A6002E09A4342F0BA
:10460000706005B11843002C01DAC861E8E4486025
:10461000E6E470B505000C4611D0012D0FD0022D37
:104620000DD0032D0BD0042D09D0052D07D0062D5C
:1046300005D040F26521AFF2304001F061F874B16D
:10464000012C57D0022C55D0032C53D0042C51D020
:10465000052C4FD0062C4DD0072C4BD034E049E030
:1046600000080140000C014000100140001401400E
:1046700000180140001C01400020014000000140E2
:10468000000020420001180000021800000318007A
:1046900000081A00000C1A00010020000001300080
:1046A0000002300000043000001120000020200033
:1046B00001000080000200800004008000080080EB
:1046C0000010008000200080082C13D0092C11D08D
:1046D0000A2C0FD00B2C0DD00C2C0BD00D2C09D08C
:1046E0000E2C07D00F2C05D040F26621AFF2E84027
:1046F00001F006F8A007020F0D4824F00303184448
:104700000F21836891408B438360816895402943E2
:10471000816070BD10B5040007D0012C05D04FF4A6
:104720001E71AFF21C5000F0EBFF0248046010BD98
:1047300000000140DC0020422DE9F0410446FF4822
:10474000844215D0FE4DFF4EFF4FDFF80084AC428F
:1047500009D0B44207D0BC4205D0444503D08521DE
:10476000FBA000F0CDFFAC420DD101214C0418E0BC
:1047700001218C032046FCF7A0F92046BDE8F0415A
:104780000021FCF79AB9B44202D101218C0408E05F
:10479000BC4202D10121CC0403E044450AD10121ED
:1047A0000C052046FCF7A7F92046BDE8F0410021A2
:1047B000FCF7A1B9BDE8F0812DE9F043DF4EE04FF1
:1047C000DFF8808385B004460D46B0420DD0BC4270
:1047D0000BD0444509D0DC48844206D0DB488442F3
:1047E00003D0B821DAA000F08BFF2868E749401E0B
:1047F000884203D3B921D6A000F082FFA8884FF4E5
:10480000805928B1484503D0BA21D1A000F078FFE3
:10481000E88858B1484509D0B0F5005F06D0B0F53A
:10482000405F03D0BB21CAA000F06AFF288948B1CD
:10483000B0F5806F06D0B0F5C06F03D0BC21C4A026
:1048400000F05EFF688930F00C0100D118B9BD217D
:10485000BFA000F055FFA889C0B1B0F5807F0BD094
:10486000B0F5007F08D0B0F5407F05D0BE21B8A0DC
:1048700000F046FFA88948B1B44207D0BC4205D039
:10488000444503D0C221B2A000F03AFF208A4CF682
:10489000FF710840E98801432182A1894EF6F31097
:1048A0000140A8882A8910436A890A431043A081DD
:1048B000A08A4FF6FF410840A9890143A1826846BA
:1048C000FCF725F8B44201D1039800E00298A189D1
:1048D0000904002900EBC00101EB0010296802DA8D
:1048E0004FEA410101E04FEA8101B0FBF1F064229F
:1048F000B0FBF2F14FEA01114FEA11136FF0180506
:104900006B43A58900EB83004FF032032D0406D5DD
:1049100003EBC000B0FBF2F000F0070005E003EB92
:104920000010B0FBF2F000F00F000843208105B04A
:10493000BDE8F0834FF41651016000218180C180F1
:1049400001810C2242818181704770B505467B4808
:104950000C4685420AD07A48854207D0794885427C
:1049600004D04FF499717AA000F0CAFE208838B1C3
:10497000B0F5006F04D040F2331175A000F0C0FE16
:10498000608838B1B0F5806F04D04FF49A7170A090
:1049900000F0B6FEA08838B1B0F5007F04D040F238
:1049A00035116BA000F0ACFEE08838B1B0F5807F27
:1049B00004D04FF49B7166A000F0A2FE288A4FF24B
:1049C000FF01084021886388A288E48819432243B4
:1049D00011430143298270BD002101804180818003
:1049E000C180704770B5044654480D46844210D0CB
:1049F000534884420DD0534884420AD052488442DE
:104A000007D05248844204D04FF4B17150A000F056
:104A100077FE55B1012D04D040F263114CA000F097
:104A20006FFEA08940F4005002E0A08920F40050FD
:104A3000A08170BD2DE9F047404FDFF80491DFF809
:104A400004A104460D461646B8420ED04C450CD083
:104A500054450AD03C48844207D03C48844204D0A4
:104A600040F289113AA000F04BFE40F66A18282D5A
:104A70001CD0A5F5E060273818D0A5F5C060263811
:104A800014D0A5F5A060253810D0A5F58060243895
:104A90000CD0A5F50060463808D0454506D0602DFD
:104AA00004D04FF4C5712AA000F02AFE36B1012EC1
:104AB00004D040F28B1126A000F022FE45450AD119
:104AC000BC4208D04C4506D0544504D040F28F116A
:104AD0001FA000F015FE05F01F020120C5F34211D2
:104AE0009040012906D0022906D0143421682EB145
:104AF000014304E00C34F9E71034F7E78143216007
:104B0000BDE8F08770B504460C480D461646844251
:104B100010D00B4884420DD00A4884420AD00A487B
:104B2000844207D00948844204D040F2C31108A04F
:104B300000F0E6FD35F0C0002BD129E0003801403F
:104B40000044004000480040004C0040005000403D
:104B50004C69627261726965735C53544D333246BD
:104B60003130785F5374645065726970685F447265
:104B7000697665725C7372635C73746D333266312F
:104B800030785F75736172742E63000020AA440050
:104B90002DB94FF4E271AFF2480000F0B1FD56B10B
:104BA000012E05D040F2C511AFF25C0000F0A8FD67
:104BB000A08A284301E0A08AA843A08270BD70B5F6
:104BC0000446FD480D46844211D0FC4884420ED074
:104BD000FB4884420BD0FB48844208D0FA48844208
:104BE00005D040F2DF11AFF2980000F089FD0F2DE3
:104BF00005D94FF4F071AFF2A80000F081FD208AD2
:104C000020F00F002082208A2843208270BD70B5DA
:104C10000446E9480D46844211D0E84884420ED04B
:104C2000E74884420BD0E748844208D0E6488442F3
:104C300005D04FF4FB71AFF2E80000F061FD45B123
:104C4000B5F5006F05D040F2F711AFF2FC0000F0AF
:104C500057FDA08920F40060A081A0892843A0818D
:104C600070BD70B50446D4480D46844211D0D34877
:104C700084420ED0D24884420BD0D248844208D01D
:104C8000D148844205D040F20921AFF23C1000F037
:104C900037FD5DB1012D05D040F20A21AFF2501071
:104CA00000F02EFDA08940F0020002E0A08920F073
:104CB0000200A08170BD70B50446BF480D46844215
:104CC00011D0BE4884420ED0BD4884420BD0BD48AE
:104CD000844208D0BC48844205D040F22621AFF27D
:104CE000901000F00DFD3DB1202D05D040F22721A0
:104CF000AFF2A41000F004FD208A20F020002082F2
:104D0000208A2843208270BD70B50446AA480D460B
:104D1000844211D0A94884420ED0A94884420BD0C5
:104D2000A848844208D0A848844205D040F23921DE
:104D3000AFF2E41000F0E4FC5DB1012D05D040F2CB
:104D40003A21AFF2F41000F0DBFC208A40F48040FE
:104D500002E0208A20F48040208270BD70B50446B5
:104D600095480D46844211D0944884420ED0944810
:104D700084420BD09348844208D09348844205D0A3
:104D800040F25321AFF2382000F0BAFCB5F5007FB5
:104D900005D34FF41571AFF2482000F0B1FCC5F314
:104DA0000800A08070BD10B504468348844211D02D
:104DB000824884420ED0824884420BD0814884428B
:104DC00008D08148844205D04FF41971AFF2802099
:104DD00000F096FCA088C0F3080010BD10B5044692
:104DE0007548844211D0754884420ED0744884427C
:104DF0000BD07448844208D07348844205D04FF4E5
:104E00001D71AFF2B42000F07BFCA08940F00100DE
:104E1000A08110BD70B5044667480D4684420BD092
:104E20006648844208D06648844205D04FF4217118
:104E3000AFF2E42000F064FC208BC0B22083208B12
:104E400040EA0520208370BD70B504465A480D46DF
:104E5000844211D0594884420ED0594884420BD024
:104E60005848844208D05848844205D04FF42671EF
:104E7000AFF2243000F044FC208B00F47F4020830C
:104E8000208B2843208370BD70B504464A480D46E8
:104E900084420BD04948844208D04948844205D016
:104EA00040F2AB21AFF2583000F02AFC5DB1012D89
:104EB00005D04FF42B71AFF2683000F021FCA08ACE
:104EC00040F0200002E0A08A20F02000A08270BD07
:104ED00070B5044638480D4684420BD037488442AA
:104EE00008D03748844205D04FF43171AFF2A0307A
:104EF00000F006FC5DB1012D05D040F2C521AFF2F6
:104F0000B03000F0FDFBA08A40F0100002E0A08A63
:104F100020F01000A08270BD70B5044626480D46F2
:104F2000844211D0254884420ED0254884420BD0BB
:104F30002448844208D02448844205D040F2DE212F
:104F4000AFF2F43000F0DCFB5DB1012D05D040F292
:104F5000DF21AFF2044000F0D3FBA08A40F008004C
:104F600002E0A08A20F00800A08270BD70B504465F
:104F700011480D46844211D0104884420ED010488A
:104F800084420BD00F48844208D00F48844205D099
:104F900040F2FD21AFF2484000F0B2FBB5B1012D67
:104FA00005D040F2FE21AFF2584000F0A9FBA089E5
:104FB00040F400400DE00000003801400044004093
:104FC00000480040004C004000500040A089C0F361
:104FD0000E00A08170BD70B50446D1480D468442D4
:104FE00011D0D04884420ED0CF4884420BD0CF4855
:104FF000844208D0CE48844205D04FF44671AFF2C7
:10500000B04000F07DFB5DB1012D05D040F21931BB
:10501000AFF2C44000F074FBA08A40F4006002E0EC
:10502000A08A20F40060A08270BD70B50446BC4820
:105030000D46844211D0BB4884420ED0BA48844207
:105040000BD0BA48844208D0B948844205D040F217
:105050003531AFF2045000F053FB042D06D02DB1D2
:1050600040F23631AFF2185000F04AFBA08A20F02F
:105070000400A082A08A2843A08270BD70B50446B7
:10508000A7480D46844211D0A64884420ED0A648B7
:1050900084420BD0A548844208D0A548844205D05C
:1050A0004FF45271AFF2585000F02AFB5DB1012D60
:1050B00005D040F24931AFF2685000F021FBA08AE0
:1050C00040F0020002E0A08A20F00200A08270BD41
:1050D0002DE9F047924F0026DFF84882DFF848922A
:1050E00005460C46B8420FD045450DD04D450BD076
:1050F0008E48854208D08E48854205D040F26E31F8
:10510000AFF2B45000F0FCFA012C22D0802C20D059
:10511000402C1ED0202C1CD0102C1AD0B4F5807F2F
:1051200017D0B4F5007F08D0082C12D0042C10D072
:10513000022C0ED040F26F3107E0BD4209D0454548
:1051400007D04D4505D040F27331AFF2FC5000F06E
:10515000D7FA2888204200D001263046D0E42DE935
:10516000F0416F4E6F4FDFF8C08104460D46B042EC
:105170000FD0BC420DD044450BD06C48844208D0BF
:105180006B48844205D040F29E31AFF23C6000F0A3
:10519000B7FA35F4587000D12DB940F29F31AFF213
:1051A000506000F0ADFAA8050BD5B44209D0BC425E
:1051B00007D0444505D040F2A331AFF26C6000F057
:1051C0009FFAE8432080BDE8F0812DE9F047544F75
:1051D0000026DFF85081DFF8509105460C46B842B2
:1051E0000FD045450DD04D450BD05048854208D0D5
:1051F0004F48854205D040F2C131AFF2AC6000F0BB
:105200007FFA40F66A10282C2DD0A4F5E0612739EA
:1052100029D0A4F5C061263925D0A4F5A06125398F
:1052200021D0A4F5806124391DD0A4F50061463950
:1052300019D084420BD0B4F5587F14D0B4F5187F40
:1052400011D0B4F5B07F0ED040F2C23107E0BD42BC
:1052500009D0454507D04D4505D040F2C631AFF2E3
:10526000107000F04DFA04F01F030122C4F3421045
:1052700002FA03F101280FD002280FD0A88A0842B1
:105280004FEA142102FA01F2298801EA020101D051
:1052900001B10126304633E4A889F0E7288AEEE719
:1052A0002DE9F0411E4E1F4FDFF87C8004460D466D
:1052B000B0420FD0BC420DD044450BD01B488442B5
:1052C00008D01B48844205D040F20A41AFF28070FA
:1052D00000F016FAA5F5C06140F66A10263918D01C
:1052E000A5F5A061253914D0A5F50061463910D087
:1052F000854202D040F20B4107E0B44209D0BC42E3
:1053000007D0444505D040F20F41AFF2BC7000F029
:10531000F7F9290A01208840C043208053E70000A4
:10532000003801400044004000480040004C00406C
:105330000050004010B50446B0F5E06F0FD0B4F552
:10534000C06F0CD0B4F5A06F09D0B4F5806F06D053
:10535000B4F5407F03D063214DA000F0D1F9584847
:1053600004435848046010BD70B50446C0780F254A
:1053700028B1012803D0752145A000F0C1F960785B
:10538000102803D3762142A000F0BAF9A0781028A3
:1053900003D377213EA000F0B3F9E27801214FF06A
:1053A000E020EAB1D0F80C2D667802F4E062C2F594
:1053B000E062120AC2F10403D540A2789E4023782D
:1053C0002A4032430344120183F80024227853090F
:1053D00002F01F0200EB83009140C0F8001170BD85
:1053E0002278530902F01F0200EB83009140C0F8BD
:1053F000801170BD70B504460D46B0F1005F06D057
:10540000B4F1006F03D09F2121A000F079F92E485C
:10541000854203D3A0211EA000F072F92B4805405D
:105420002B482543056070BD70B504460E46102814
:1054300007D0042C05D0022C03D0B22114A000F018
:105440005FF94FF0E0254EB1012E03D0B32110A03B
:1054500000F056F9D5F8100D204302E0D5F8100DF4
:10546000A043C5F8100D70BD10B54FF0E02404281E
:105470000AD0401D03D0CA2105A000F041F92069DF
:1054800020F00400206110BD206940F00400F9E71D
:105490004C69627261726965735C53544D33324674
:1054A0003130785F5374645065726970685F44721C
:1054B000697665725C7372635C6D6973632E6300F9
:1054C0000000FA050CED00E0FFFF0F0080FFFF1F5A
:1054D00008ED00E00648804706480047FEE7FEE783
:1054E000FEE7FEE7FEE7FEE7FEE7FEE7FEE7FEE794
:1054F0000B0200085101000800E0401E0028FCD10A
:10550000704710B500F022FABDE81040002000F00E
:105510007BBD10B500F0F8FC38B17AA000F015FCA6
:10552000FFF7EFFF00F057FA11E000F064FA08B15E
:1055300078A008E000F0C6FA08B17AA003E000F015
:105540009DFA30B17CA000F000FCFFF7DAFF0020EC
:1055500010BD032010BD10B5012000F055FD7B48A3
:10556000401EFDD1BDE8104000F09AB910B500F022
:10557000ACFC48B900F0B3FC30B175A000F0E5FB1D
:10558000FFF7E9FF032010BD022010BD10B500F0A9
:1055900026FA08B171A008E000F094FA08B174A0EE
:1055A00003E000F05AFA30B163A000F0CEFBFFF741
:1055B000A8FF022010BD012010BD10B5012000F091
:1055C00023FD6248401EFDD1BDE81040012000F0DF
:1055D00067B910B500F079FC10B100F080FC08B19B
:1055E000002010BD67A000F0B0FBFFF7E6FF012030
:1055F00010BD10B500F055FC30B1012000F004FDE5
:105600006348401EFDD110BD00F055FC0028FAD0C3
:10561000BDE81040002000F0F7BC10B500F074FCAD
:1056200002005C484FF4007100D00122BDE8104038
:10563000FEF73ABE10B5FFF78EFF42F21070044637
:1056400000E02046401EFDD100F05EFC28B1FFF7CF
:1056500058FF00F0C0F9002010BD00F00FFA00283C
:10566000EFD0FFF74EFF4CA000F024FD092010BD45
:105670004FF4E13000F02BFB00F0D7F800F004FC11
:1056800000F090FC48490846401EFDD1491EFDD15E
:10569000012146A000F00EFD00F017FC10B147A05C
:1056A00000F053FB00F01BFC10B149A000F04DFBD3
:1056B000FFF7C0FF4B4C42F21076002720603546C2
:1056C0006D1EFDD1FFF7A9FFFFF793FF20680A28A1
:1056D00014D2DFE800F006090C0F1313131313059F
:1056E000EDE7FFF776FF07E0FFF750FF04E0FFF775
:1056F0003DFF01E0FFF70DFF2060E0E72760DEE7F8
:10570000704700000D0A206F6B20636C6F73656437
:105710002E0D0A000D0A20497353746F705F4F4BB2
:105720002E0D0A000D0A2074696D20636C6F73657D
:10573000642E0D0A000000000D0A204F7574206FC2
:105740006620737465702E0D0A000000400D030082
:105750000D0A20636C6F73652E0D0A000D0A207010
:10576000756C7365206F70656E65642E0D0A0000A0
:105770000D0A2074696D206F70656E65642E0D0AC8
:10578000000000000D0A206F70656E2E0D0A0000EB
:10579000A0860100000C0140696E69742065727278
:1057A0006F722E0D0A000000809698000D0A20737B
:1057B000746172742025640D0A0000000D0A206FC8
:1057C00070656E20636C69636B2E0D0A000000002B
:1057D0000D0A20636C6F736520636C69636B2E0D1B
:1057E0000A0000002800002038B500214FF00060BA
:1057F000FFF700FE1D208DF8000000248DF8014009
:105800008DF8024001258DF803506846FFF7ACFD86
:1058100036208DF800008DF801408DF802408DF89B
:1058200003506846FFF7A0FD38BD10B50020FF49C2
:105830004860886001210846FBF7E5F801213C201B
:10584000FBF7E1F801210846FBF7FBF801210220F4
:10585000FBF7F7F801211020FBF7F3F800F03AF915
:10586000FFF7C2FF00F094F9F14C00212046FDF74C
:10587000A6FE01212046FEF7ADF901212046FEF7E4
:105880004BFA01212046FCF746FF01221146204633
:10589000FCF715FA2046BDE810400121FCF795B948
:1058A00010B5E24904460020086001220421E148C5
:1058B000FEF7FAFC01221146DF48FEF7F5FC002254
:1058C0002021DE48FEF7F0FC0CB1012200E00022AE
:1058D000DB4C4FF480712046FEF7E6FC012291027A
:1058E0002046FEF7E1FC0122D1022046FEF7DCFC57
:1058F000012211032046FEF7D7FCE40400212046D4
:10590000FDF75DFE01212046FCF705FF0121204641
:10591000FCF75BF9CB4C00212046FDF750FE01213E
:105920002046FEF757F901212046FEF7F5F901213F
:105930002046FCF7F0FE012211462046FCF7BFF995
:105940002046BDE810400121FCF73FB910B592B0E8
:10595000402101A800F079FBB44CBBA101A8236849
:105960000093D4E9012300F0B5FB01A800F0EDF9A4
:105970000020024620600421AE48FEF795FC00227C
:105980000121AD48FEF790FC01222021AB48FEF733
:105990008BFC4FF0804400212046FDF710FE0021D3
:1059A0002046FCF7B8FE00212046FCF70EF9A54C76
:1059B00000212046FDF703FE00212046FCF7ABFE48
:1059C000002201212046FCF77AF900212046FCF74D
:1059D000FCF812B010BD954881684160704793484B
:1059E000D0E9012140F62820891A814201DD0120F9
:1059F0007047002070478D48001D03C8401F81423A
:105A000001DA01207047002070472DE9F041884EEF
:105A100001213046FEF725F901281CD1874F40218E
:105A20003846FEF7E7FA814C0546E06860B9012D7B
:105A30000AD180213846FEF7DDFA0028A06801D09F
:105A4000401C00E0401EA0603046E560BDE8F0412B
:105A50000121FEF7BFB8BDE8F08174480269816892
:105A60000161914206DC4169491C4161052903DD60
:105A70000120704700214161002070476B48826916
:105A800081688161914206DBC169491CC1610529B8
:105A900003DD012070470021C1610020704710B56F
:105AA000684C01212046FEF7DCF8012809D15F4946
:105AB0000868401C08602046BDE810400121FEF740
:105AC00089B810BD5949684A01200968914200DC33
:105AD000002070472DE9F8430426ADF80060482007
